:100000000C94CF020C94712A0C9407030C940703F0
:100010000C9407030C9407030C9407030C94070338
:100020000C9407030C9407030C9418240C94D42309
:100030000C9415250C9407030C9407030C940703E8
:100040000C9407030C9407030C9407030C94070308
:100050000C9407030C94F1240C9407030C940703ED
:100060000C9407030C9407030C9407030C940703E8
:100070000C9407030C9407030C9407030C940703D8
:100080000C943C250C9407030C9407030C94070371
:100090000C9407030C9407030C9407030C940703B8
:1000A0000C9407030C9407030C9407030763423670
:1000B000B79BD8A71A39685618AEBAAB558C1D3CF9
:1000C000B7CC5763BD6DEDFD753EF6177231BF00BD
:1000D0000000803F08000000BE922449123EABAAF7
:1000E000AA2ABECDCCCC4C3E00000080BEABAAAA52
:1000F000AA3E00000000BF000000803F000000009A
:1001000000084178D3BB4387D1133D190E3CC3BDD2
:100110004282AD2B3E68EC8276BED98FE1A93E4C7F
:1001200080EFFFBE01C4FF7F3F00000000002B42B4
:1001300014001A00080015001700296804001600B2
:10014000070009410A00D85C1D711B000600190058
:1001500005000000E400E200E3004C002A001C005F
:1001600018000C00120013002D420B000D410E0070
:100170000F0033003468110010003600370038716A
:10018000D95C2C002800E300E600E4000000000039
:100190001E021F022F023002240200002002210250
:1001A0002F00300031020000220223023500350208
:1001B0003100000000000000000000002A000000E4
:1001C0005F00600061005400000067005C005D009B
:1001D0005E0055000000000059005A005B00570007
:1001E0000000620062006300580067000000CC5C01
:1001F000CA5CC65CC85CC45CC05CCD5CCB5CC75CE4
:10020000C95CC55CC35C000000000000BF5CC25C50
:10021000C15C005C00000000BE5C0000000000004B
:1002200000000000000000000000500051005200DB
:100230004F0000000000BC00A900AE00BB000000A1
:1002400000000000AA00AD0000000000005C0004F7
:100250007F3F1F643214643214783C1E1E140A055A
:100260000001010101010101010102020202020279
:10027000020202030303030303030304040404044C
:100280000404050505050506060606060707070713
:100290000708080808090909090A0A0A0B0B0B0CC8
:1002A0000C0C0D0D0D0E0E0E0F0F0F101011111165
:1002B00012121313141415151616171718181919E6
:1002C0001A1A1B1B1C1D1D1E1E1F2020212222234B
:1002D0002424252626272829292A2B2C2D2D2E2F8C
:1002E00030313232333435363738393A3B3C3D3EA3
:1002F0003F404142434445464748494A4C4D4E4F92
:1003000050515354555658595A5B5D5E5F61626453
:10031000656668696B6C6D6F7072737577787A7BE0
:100320007D7E8082838587888A8C8E8F9193959637
:10033000989A9C9EA0A2A3A5A7A9ABADAFB1B3B557
:10034000B7BABCBEC0C2C4C6C9CBCDCFD1D4D6D833
:10035000DBDDDFE2E4E7E9EBEEF0F3F5F8FAFDFFD1
:10036000FFAA7F55402223252628292A2C2D2F300D
:1003700032333536383A3B3D3E4042434547494AA1
:100380004C4E5051535557595A5C5E6062646668D2
:10039000696B6D6F71737577797B7D7F81838587DD
:1003A000898A8C8E90929496989A9C9E9FA1A3A5E0
:1003B000A7A8AAACAEAFB1B3B4B6B8B9BBBCBEBF08
:1003C000C1C2C3C5C6C7C9CACBCCCDCED0D1D2D28B
:1003D000D3D4D5D6D7D7D8D9D9DADADBDBDBDCDC96
:1003E000DCDCDCDDDDDDDDDCDCDCDCDCDBDBDBDA4E
:1003F000DAD9D9D8D7D7D6D5D4D3D2D2D1D0CECDB9
:10040000CCCBCAC9C7C6C5C3C2C1BFBEBCBBB9B8C5
:10041000B6B4B3B1AFAEACAAA8A7A5A3A19F9E9C4A
:100420009A98969492908E8C8A89878583817F7D15
:100430007B79777573716F6D6B6968666462605EF6
:100440005C5A5957555351504E4C4A4947454342BF
:10045000403E3D3B3A3836353332302F2D2C2A2959
:10046000282625232205010980A101850319012AD7
:10047000B700150126B700950175108100C0050C65
:100480000901A101850419012AA002150126A00273
:10049000950175108100C005010906A101850605B9
:1004A0000719E029E7150025019508750181020566
:1004B00007190029EF1500250195F0750181020546
:1004C000081901290595057501910295017503919A
:1004D00001C005010906A101050719E029E715007A
:1004E00025019508750181029501750881010507AF
:1004F000190029FF150026FF0095067508810005E3
:100500000819012905950575019102950175039159
:1005100001C009023B00020100A0FA090400000129
:10052000030101000921110100012240000705819A
:100530000308000109040100010300000009211162
:10054000010001226D000705820320000112010055
:1005500002000000080912E5BE02000102000124A9
:100560000356006900740061006D0069006E00733D
:1005700000200049006E0063006C00750064006597
:10058000006400000012034400750063006B006CFF
:100590000065003200390000000403090400112442
:1005A0001FBECFEFDAE0DEBFCDBF04B603FE18C03A
:1005B00080911C0690911D06A0911E06B0911F0609
:1005C0008730904BA740B04B59F410921C06109204
:1005D0001D0610921E0610921F06E0E0F8E3099532
:1005E00014E0A0E0B1E0E2E3F1E602C005900D9274
:1005F000AA33B107D9F726E0AAE3B4E001C01D92FF
:10060000AC31B207E1F70E94E0260C9481300C94E3
:100610000000CF92DF92EF92FF92E0911B06EE2353
:1006200009F1E15088E0E802F0011124E552FA4FA7
:10063000C280D380E480F58020E030E0A901C701CA
:10064000B6010E94A72C18166CF48091DA0581116E
:1006500002C01092D905C701B601FF90EF90DF905C
:10066000CF900895C12CD12C7601F5CFFC01AC01BF
:100670004C5F5F4F8FEF91E32191822728E030E0BC
:1006800087FF09C0880F892721503109C9F7E4176E
:10069000F50791F70895880FF7CFE8EDF0E0808136
:1006A0008E7F80831092E2001092DA001092E100B7
:1006B000A0EEB0E08C9181608C9380818F778083F5
:1006C00019BCA7EDB0E08C918E7F8C9380818F7EDA
:1006D00080831092970508952091E4003091E50001
:1006E00095E6A9012091EC00822F817020FF06C0C1
:1006F0008091E80080FF06C080E008952091E80026
:1007000022FD1AC08091BC05882389F0853089F0CC
:100710008091EB0085FD0FC02091E4003091E50051
:1007200042175307F9F29150E1F684E0089582E010
:10073000089583E0089581E00895EF92FF920F936A
:100740001F93CF937C018B010E946C03C82F8111F2
:1007500017C08091E80085FD0BC08091E8008E777E
:100760008093E8000E946C03882399F3C82F08C087
:10077000F70181917F018093F1000150110949F740
:100780008C2FCF911F910F91FF90EF900895809142
:10079000BE0587FF13C08091E80082FF06C08091EC
:1007A000E8008B778093E80004C08091BC0581113C
:1007B000F2CF08958091BC058823D9F38091E80099
:1007C00080FFF8CF8091E8008E77ECCF982F909340
:1007D000E900242F762F50E0891731F07091EC005A
:1007E0002091ED005091F00021FD07C09F5F9730F0
:1007F00071F78093E90081E008953091EB003E7F2E
:100800003093EB003091ED003D7F3093ED0030915F
:10081000EB0031603093EB007093EC002093ED001F
:100820005093F0002091EE0027FDE0CF80E0089586
:10083000B0E0A0E0EEE1F4E00C94972BC8EDD0E03E
:1008400088818F7E8883E7EDF0E0808181608083FE
:1008500084E082BF81E08093970588818E7F8883C2
:1008600002EE10E0F80110821092DA0081EEC82E3C
:10087000D12CF601108288818F77888388818068E7
:10088000888388818F7D888319BC1092BC05109263
:10089000BD051092BB051092BA0590EEE92EF12C21
:1008A000F70180818B7F808388818160888342E02B
:1008B00060E080E00E94E603F60180818E7F808305
:1008C000F801808181608083808188608083F70166
:1008D00080818E7F8083888180618883CDB7DEB7F9
:1008E000E8E00C94B32BFC018091C4059091C50500
:1008F00086179707A0F06115710529F49091E8001B
:100900009E779093E80090E06115710551F4911184
:1009100008C08091E80082FF34C080E00895BC01E7
:10092000F2CF8091BC058823C1F18530C1F180915F
:10093000E80083FD30C08091E80082FDEACF80911D
:10094000E80080FFE1CF8091F3002091F200382F82
:100950006115710519F02830310558F091E0283003
:10096000310509F090E02091E8002E772093E8000F
:10097000CBCF81918093F100615071092F5F3F4F80
:10098000E7CF8091BC05882341F0853041F080910C
:10099000E80083FFBECF81E0089582E0089583E000
:1009A00008950895089508958091990508959C01EA
:1009B0004FB7F89480918E0590918F05A091900586
:1009C000B09191054FBF821B930B08952FB7F894F8
:1009D00060918E0570918F058091900590919105A1
:1009E0002FBF08952FB7F89480918E0590918F05B1
:1009F000A0919005B09191052FBF08952091B40367
:100A00002223C9F02091920527FF15C0E62FE69515
:100A1000E695E695EE31D8F4E80FF92FF11D6770F1
:100A200021E030E001C0220F6A95EAF7209582812B
:100A3000282322830895FC0132960896219162139F
:100A400003C0DF0111971C92E817F907B9F7089561
:100A50002091B4032223C1F02091920527FF14C0F6
:100A6000E62FE695E695E695EE31F8F4E80FF92FD6
:100A7000F11D677021E030E001C0220F6A95EAF7AE
:100A80008281822B82830895FC0132962FEF30E021
:100A90004191641751F02F3F19F4411101C0232FE8
:100AA0003F5F3630A9F72F3F09F40895820F911D5B
:100AB00027FD9A95FC016283089520918B05309162
:100AC0008C052817390771F090938C0580938B055E
:100AD000E0918905F0918A05309721F00084F18535
:100AE000E02D0995089520918705309188052817F4
:100AF000390771F09093880580938705E091890507
:100B0000F0918A05309721F00680F781E02D099554
:100B10000895FA01811101C0FB0109950895E8E5E6
:100B2000F5E011828281846082830895809182053C
:100B3000982F9E7F29F481708260809382050895AA
:100B40008A34E8F381708864F8CFAF92BF92DF9265
:100B5000EF92FF920F931F93CF93DF93082F162FDF
:100B6000E901E42FF0E0E05AFD4F611110C0E4917B
:100B70005E2F4E2F4983E8835A83DF91CF911F91D7
:100B80000F91FF90EF90DF90BF90AF900895E62E09
:100B9000F12C4491D42EE42FF0E026E0829FC00196
:100BA00011242FEF30E0B9010E94D22B802F90E06A
:100BB000880F991F55E5569FD001579FB00D1124FE
:100BC0008A1B9B0B982F990F890F5901AE18BF08EC
:100BD000AE9ED001AF9EB00DBE9EB00D11245B2F16
:100BE000189F80011124012F11275901A01AB10A61
:100BF000AE9E8001AF9E100DBE9E100D11245901B6
:100C0000A81AB108AE9CC001AF9C900DBE9C900D7F
:100C10001124892F9927281B390B2E9FC0012F9F44
:100C2000900D3E9F900D1124E92F62307105A1F0C7
:100C300050F46115710509F49DCF6130710581F0A3
:100C4000EB2F512F97CF6430710569F080F066303B
:100C5000710509F48FCFF4CFE42F4B2F592F8ACF92
:100C6000E42F412F87CFEB2F542F492F83CF4B2FCA
:100C70005D2DE12F7FCFE1E7F0E080818D7F8083E4
:100C8000E0E9F0E080818F7380830895CF92DF9256
:100C9000EF92FF926B017C0120E030E0A9010E94FD
:100CA000A72C81110AC0809190008F7380939000CF
:100CB000FF90EF90DF90CF90089580919000806832
:100CC00080939000C0924805D0924905E0924A0571
:100CD000F0924B0520E030E040E051E4C701B6015E
:100CE0000E94FF2D9B01AC0160E074E284E79BE46D
:100CF0000E94AC2C6B017C010E941E2D709397000A
:100D00006093960020E030E048E452E4C701B60169
:100D10000E94FF2D20E030E048EC52E40E94AC2C11
:100D20000E941E2D7093990060939800C1CF80910E
:100D3000E002811122C010921B060E943B06109215
:100D4000D5051092D6051092CA051092C905EBED93
:100D5000F5E080E090E0A0E8BFEB11821082828392
:100D60009383A483B58317821682389626E0EB31ED
:100D7000F20799F781E08093E00208958091500591
:100D800081110E949706089580E00895F894E82F55
:100D9000E295EF70F0E031A1282F2F7081E090E014
:100DA00001C0880F2A95EAF7982F9095932391A375
:100DB00092A1892B82A3789408959091920592FF35
:100DC00006C0282F28712830F9F4877F846093FFAC
:100DD00006C0282F28712831F1F4877E8461209184
:100DE000930520FF06C0382F38713830D9F4877F3B
:100DF000816021FF06C0282F28712831D1F4877E19
:100E0000816194FD877E0895282F24712430F9F69E
:100E10008B7F8860DCCF282F2471243101F78B7EF3
:100E20008861DDCF382F3171313019F78E7F8860BE
:100E3000E0CF282F2171213121F78E7E8861E1CF0B
:100E4000972F7830A8F4663098F470E026E0929FEF
:100E5000600D711D1124FB0190E3899FE00DF11DD0
:100E60001124EE0FFF1FE25DFE4F859194910895CE
:100E700080E090E00895CF93DF93EC0182389105F4
:100E8000A9F1D8F58133910509F496C048F5893266
:100E9000910509F48AC08A9709F495C0C11522E525
:100EA000D20708F0B6C0C11531E5D30708F026C156
:100EB000C83ED10508F09CC0C03ED10560F5C83AD7
:100EC000D10508F087C0C53AD10508F0EFC0C130A0
:100ED000D10509F12097F9F0C430D105E0F440C004
:100EE0008533910509F45AC0C997C1F680919205DE
:100EF000837089F0C0EED0E00EC0833E910599F179
:100F000070F4803E910501F1823E910539F68091A1
:100F1000920582FD21C0CE01DF91CF910895863EDA
:100F2000910561F1873E910571F1843E910509F0CB
:100F3000B5CF8091930581FFEECF80919205C7EEEA
:100F4000D0E084FD0DC0E7CF8091920580FD07C100
:100F50009091930590FFDFCFC3EED0E084FFDBCF0D
:100F6000D0E0C0E0D8CF8091920582FDFBC0909187
:100F7000930590FDBFCF84FFCECFF2CF8091920535
:100F800083FDDDCFC8CF8091920583FDEEC09091A7
:100F9000930591FFF0CFC4EED0E0BDCF80919205D4
:100FA00085FFB9CFC9E2D0E0B6CF8091920585FF29
:100FB000B2CFC5E3D0E0AFCF8091920586FFABCF33
:100FC000CAE2D0E0A8CF8091920586FFA4CFC1E30A
:100FD000D0E0A1CFCF3BD10518F6C85AD0E0CC0F56
:100FE000DD1FC552DC4F0990D881C02DD46493CF4A
:100FF000C11540E5D40708F064C0C11580E4D807E6
:1010000008F05CC0CE019A9581159F4108F483CF0A
:10101000A7CFC11536E5D30718F5C11545E5D407A7
:1010200008F084C0C11584E5D80708F07AC09C2F69
:10103000969596959E0123703327C115D34508F4E4
:1010400062C0C1E0D0E002C0CC0FDD1F2A95E2F7FC
:1010500030E2939FC0011124C82BD92BDA685BCFF3
:10106000C1158AE5D80778F4C11599E5D90708F0C4
:1010700068C0C11528E5D20708F472CFDC2FCC2751
:10108000C06FD06A48CFCE0190568115904208F0CB
:1010900067CF8D2F8F710E94DD0690E0982F8827F3
:1010A00088279F719C012C2BE90149C0C55AD0E0CB
:1010B000C852DC4FC881D0E0D0642DCFDF70D06A39
:1010C0002ACFCE01E4E096958795EA95E1F7837003
:1010D0002C2F26952695237040E2249F9001112401
:1010E000382B8C2F8370C1E0D0E002C0CC0FDD1F05
:1010F0008A95E2F7C22BD32BDC680DCFDC2FCC27EF
:10110000C16FD06A08CFC1E0D0E002C0CC0FDD1FB4
:101110002A95E2F720E2929FC0011124C82BD92B17
:10112000EBCFDC2FCC27C46FD06AF5CE8C2F0E947A
:10113000DD06C82FD0E0DC2FCC27CC27DF71D062B2
:10114000EACE8C2F8F700E94DD0634E0D695C795CD
:101150003A95E1F7CF709C2FEC01D069DCCEC9E362
:10116000D0E0D9CEC2EED0E0D6CEC6EED0E0D3CE1F
:101170008091D80481111092D8040895809590919F
:10118000D70498239093D70408958091B404909144
:101190008304981301C008958F5F8770FACFB0E081
:1011A000A0E0E5EDF8E00C94962B8C01C0901805BA
:1011B000D0901905E0901A05F0901B058091D90494
:1011C0009091DA04A091DB04B091DC04C82AD92AFA
:1011D000EA2AFB2ACFE1D0E0BC2ED701C6010C2EB3
:1011E00004C0B695A795979587950A94D2F780FD88
:1011F00009C0219788F7B12C8B2DCDB7DEB7E9E078
:101200000C94B22BB8018C2F0E9420070E943B0740
:10121000019779F3F1CFCF93DF93EC010E94CF08D0
:10122000BE010E9420070E943B07DF91CF910895E5
:10123000292F983080F5863070F590E036E0239FB6
:10124000800D911D1124682F677023E09695879576
:101250002A95E1F725E0289FF001299FF00D112440
:10126000E15AFB4F50E040E080E0219130E0062E53
:1012700002C0369527950A94E2F721703327042E91
:1012800001C0220F0A94EAF7822B4F5F5F4F45306F
:10129000510559F7089580E00895292F9830A0F559
:1012A000863090F590E036E0239F800D911D11244B
:1012B000282F277041E001C0440F2A95EAF723E068
:1012C000969587952A95E1F725E0289FF001299FBB
:1012D000F00D1124E15AFB4F30E020E070E0519115
:1012E000DF011197CB01022E02C0969587950A94D3
:1012F000E2F7817081958527842385278C932F5F62
:101300003F4F2530310559F70895FC0180819181C7
:101310000E940B0992959F70963091F058F4925F5D
:101320009F70923058F4803F19F030F4883E30F4CA
:1013300081E008959A5FF4CF843FD1F380E008956F
:10134000883EB0F3813FD1F7F3CF8093940570933B
:101350009605609395058091BC05843001F582E087
:101360008093E9008FEF9091E800815095FD06C0D1
:1013700095ED9A95F1F700008111F5CF8091E80085
:1013800085FF0DC050E040E063E070E084E995E047
:101390000E949D038091E8008E778093E800089575
:1013A000BC0184E00E94A5090895BC0183E00E946D
:1013B000A5090895CF93DF93EC018091B4038823AE
:1013C000B1F18091920587FF32C060E282E08093A4
:1013D000E9008FEF9091E800815095FD06C095EDF2
:1013E0009A95F1F700008111F5CF8091E80085FF13
:1013F0001BC08091B40370E050E040E0811104C054
:1014000050E040E068E070E0CE010E949D038091D2
:10141000E8008E778093E80080E2FE01AAE9B5E05B
:1014200001900D928A95E1F7DF91CF91089568E0E0
:1014300081E0CDCF6091B0038091820580FF20C014
:101440008091AF0343E0849FC0011124825A9A4FD8
:10145000809A21B32E7F31B331605FB7F894FC01DD
:10146000649FE00DF11D1124BF0168177907D1F4C5
:101470005FBF8FE594E00197F1F700C00000089589
:101480008091B1039091B20323E0829FF001112477
:10149000E25AFA4F8917A0F61182108212828F5FEA
:1014A0003396F8CFFC014191CF01E8E031BB000059
:1014B00000C047FF21BB440F000000C000C000C0B7
:1014C00021BB00C0EA9591F7D0CF0F931F93CF9324
:1014D000DF93EC0110E000E09091B3039017110648
:1014E00009F06CF40E941A0A8C8190E001968170D8
:1014F00099278C83DF91CF911F910F9108952091AF
:10150000B103A801420F511D9A01220F331F240F6E
:10151000351F225A3A4F4C81609184058091830592
:1015200096959017110651F04CF0442349F04091E4
:1015300085050E94A5050F5F1F4FCECF4423B9F349
:1015400040E0F7CFB0E0A0E0E8EAFAE00C94932B9B
:10155000EC014C81042F10E09801D8010E942A2C44
:101560009B01AC010E94402C4B015C01E0E2F0E0E9
:10157000E01BF10BA5E5B0E0AC019B010E94402C03
:101580006B017C019F01DF010E94222C9B01AC01B9
:101590000E944B2C9B01AC01280D391D4A1D5B1D7F
:1015A000C701B6010E94FA2BF22E822F90E039E299
:1015B0003F1520F143E0249F900111243595279594
:1015C000122F109500E085E5E82EEF188091B30307
:1015D000081718F10E941A0A9C8181E0992319F0DA
:1015E000903219F48FEF8093AE038091AE03890F90
:1015F0008C83CDB7DEB7ECE00C94AF2B25E530E063
:10160000B901681B790B9B01220F331F260F371F6F
:1016100037FFD4CF2F5F3F4FD1CF8E2D01FD8F2DC0
:101620002091B103622F600F7727771F9B01220F54
:10163000331F260F371F225A3A4F412F60918405DE
:101640000E94A5050F5FC2CFEF92FF920F931F93E9
:10165000CF93DF93EC018C81811109C081E08C83F1
:1016600010925C0592E09093AD038093AC0380915F
:10167000B1039091B20323E0829FF0011124E25A5A
:10168000FA4F891758F110E003E06091B303161781
:1016900058F10E941A0A8091AC0320915C05280F32
:1016A00020935C059091AD03980F9093AD031916AC
:1016B00054F4022E000C330B4091B3034150550BF0
:1016C0002417350734F081958093AC03813009F4F9
:1016D0001C82CDB7DEB7E6E00C94B52B11821082E8
:1016E00012828F5F3396CDCFE12EF12C70E0C701CF
:1016F0000E94E62B2091B103820F482F50E02091E9
:101700005C05022E000C330BE216F306BCF02091B0
:10171000AD03022E000C330B2E153F057CF0809F8D
:1017200090011124225A3A4F409185056091840519
:10173000809183050E94A5051F5FA7CFFA01EE0FD8
:10174000FF1FE40FF51FE25AFA4F11821082128236
:10175000F3CFB0E0A0E0EFEAFBE00C94932BEC01B8
:101760008A81BB24BA9480FD02C0BB24B394A090AC
:10177000B3038C81811109C081E0B81220C08FEFC2
:101780008A0D80935B0581E08C83F12CE12C4CE089
:10179000942EEA14B8F00E941A0A80915B0591E039
:1017A000B91257C0811150C08091B303815080930A
:1017B0005B051C82CDB7DEB7ECE00C94AF2B10922A
:1017C0005B05E1CF0091B1030E0D1F2D111DC80166
:1017D000880F991F080F191F025A1A4FF80111821A
:1017E0001082128234E0C32ED12C812C80915B05B3
:1017F000880D8D302CF1692D0E94C42B892F082E65
:10180000000C990B8E159F0591F4809185058C9D98
:10181000A0018D9D500D11245595479555954795DF
:10182000980160918405809183050E94A5058B0C29
:10183000F1E0CF1AD108D1F68FEFE81AF80AA9CF54
:1018400087FFDDCF8A0DDBCF815080935B05BC82A3
:10185000B1CF90E001966091B30370E00E94E62B57
:1018600080935B058C83A6CFEF92FF921F93CF935B
:10187000DF93EC0110E0EE24EA94F12C6091B303C5
:10188000161770F00E941A0A9A818C8190FF27C067
:101890008F5F8C83DF91CF911F91FF90EF90089520
:1018A0002091B103422F410F5527551FCA019A01BC
:1018B000220F331F280F391F225A3A4F70E0C701F9
:1018C0000E94E62B962F8C814091850560918405BE
:1018D000199F800D11240E94A5051F5FCFCF815055
:1018E000D8CF9091820590FF0EC09091B1032091C6
:1018F000B20333E0939FF0011124E25AFA4F92179A
:1019000018F00E941A0A08958183608342839F5FC2
:101910003396F5CFA3E0B0E0E0E9FCE00C949B2B1C
:101920008C0180915D0581110AC09E012F5F3F4FA0
:101930004FEF6FEF0E94A5058A8180935D05F80146
:101940006481613069F080915D0540E0662361F05B
:1019500040E0623011F440915D0580E060E004C039
:1019600060915D0540E080E00E94710CF801848187
:1019700090E0019663E070E00E94E62B848323965A
:10198000E4E00C94B72BA3E0B0E0E9ECFCE00C94AD
:101990009D2B9091820590FF0AC09E012F5F3F4FC3
:1019A0000E94A5054B8169818A810E94710C239652
:1019B000E2E00C94B92BCF93DF93EC01E2E8F5E081
:1019C000438162818C810E94C30C8C818F5F8C83E8
:1019D000DF91CF910895CF93DF93EC01EC81F0E09C
:1019E000EB59FC4F4491E2E8F5E0628181810E946D
:1019F000C30C8C818F5F8C83DF91CF910895B0E011
:101A0000A0E0E5E0FDE00C94952B7C015B016A0110
:101A10008091090501E010E08A3010F40AE010E03E
:101A2000C1E0D0E0B501C701F6010995811104C0FC
:101A300021960C171D072CF4CDB7DEB7EAE00C9405
:101A4000B12BCC9F9001CD9F300D300D112490E033
:101A500080E045E34A95F1F700000196821793076D
:101A6000C1F7E0CF8091E704811110C08091D800C8
:101A700080618093D8008AE18A95F1F700C0809157
:101A8000D90080FF0AC081E08093E70481E0909153
:101A9000E704913009F080E0089582E08093E70444
:101AA0000E944D031092BC05F1CF0E94320D882395
:101AB00059F0E0918905F0918A05309729F001905D
:101AC000F081E02D0995089580E008950F931F930C
:101AD0000E94320D882329F00E94E6041F910F9185
:101AE00008950E94E60400910A0510910B052091CB
:101AF0000C0530910D05600F711F821F931FEECFF3
:101B00000E94320D882319F00E94F20408950E9469
:101B1000660DCB01089560918205669570E04BE0FB
:101B200050E081EA93E00E945E30892B19F481E055
:101B3000809359050E94800D909353058093520520
:101B400080915A05846080935A050895CF92DF9260
:101B5000EF92FF926B017C010E949605B701A601EE
:101B600088E090E00E94852CFF90EF90DF90CF906E
:101B70000895A3E0B0E0EFEBFDE00C94962B082F66
:101B8000D62EF42EC22E9091820590FF3AC0E92FF6
:101B9000E695AE2FB0E0AB5EBB4F8C9180935805BD
:101BA0009E7F923091F59E012F5F3F4F802F0E94C4
:101BB000A5054B8169818A810E94710C8091830502
:101BC000801308C0809184058D1104C08091850523
:101BD0008F1529F080915A05826080935A050093F1
:101BE0008305D0928405F0928505CC2051F0609158
:101BF00082057091830580918405909185050E94EE
:101C0000A60D2396E9E00C94B22B823019F4F090E3
:101C10008505D4CF863019F400918305CFCF893064
:101C2000D9F3893159F6E9516E2F6170B62EE695D8
:101C3000F0E0E05AFC4F1491E12C6091B303E616FA
:101C400018F00E941A0ABACFE19EC001112470E078
:101C50000E94D22B802FB11014C0860F2091B103A7
:101C6000622F6E0D7727771F9B01220F331F260FE0
:101C7000371F225A3A4F4F2D6D2D0E94A505E39430
:101C8000DCCF861BEBCFE2E8F5E0438121E1421B8C
:101C900008F440E021E0628181810E94B90D08953D
:101CA000E2E8F5E0438121E1420F08F44FEF21E043
:101CB000628181810E94B90D0895E2E8F5E06281B8
:101CC00021E1621B08F460E021E0438181810E94F0
:101CD000B90D0895E2E8F5E0628121E1620F08F4B0
:101CE0006FEF21E0438181810E94B90D0895E2E800
:101CF000F5E0818121E04381628188500E94B90D25
:101D00000895E2E8F5E0818121E043816281885F06
:101D10000E94B90D089580918605882319F081509D
:101D2000809386056091820570918305809184057A
:101D3000909185050E94A60D0895809186058330B7
:101D400018F48F5F809386056091820570918305FA
:101D500080918405909185050E94A60D089590912B
:101D6000820590FF31C0917081112FC092609093D5
:101D7000820580915A05816080935A05662351F04F
:101D8000609182057091830580918405909185050D
:101D90000E94A60D60918205669570E04BE050E0D0
:101DA00081EA93E00E945E30892BB1F00E948F059A
:101DB00081E08093550520E0409185056091840580
:101DC000809183050E94B90D0895853210F09864C2
:101DD000CECF880F982BCBCF0E948B0DE9CF80916F
:101DE00082058695815009F484E261E00E94AF0E7D
:101DF00008958091820586958F5F853208F081E095
:101E000061E00E94AF0E08959091820590FF08C096
:101E10009695981728F0961718F40E94F90E0895D1
:101E200061E00E94AF0E0895E2E8F5E083E0808370
:101E300011828FEF828383831482A8E5B5E0129626
:101E40008C911297836012968C936081718182814C
:101E500093810E94A60D0895CF9384E090E00E94A4
:101E60005F2CC82F82E290E00E945F2C982F8C2F6D
:101E7000CF9108958554990BBC01990F880B990B4C
:101E80000E944F2D20E030E040E451E40E94AC2C51
:101E90009B01AC0160E070E080E090E40E946C2E59
:101EA00020E030E04CED53E40E94FF2D0895A4E0C3
:101EB000B0E0EDE5FFE00C949C2B4091F0045091D4
:101EC000F1046091F2047091F3042FB7F8948091BB
:101ED0008E0590918F05A0919005B09191052FBF2F
:101EE000841B950BA60BB70B11E084369105A10559
:101EF000B10570F10E94660D6E5F7F4F8F4F9F4F4F
:101F000069837A838B839C8380918A0290918B0270
:101F10008C509B4F4091890250E04530510510F0A4
:101F200044E050E0BE016F5F7F4F0E94783082E056
:101F300090E00E94172B182F882351F00E94E6048E
:101F40006093F0047093F1048093F2049093F3048F
:101F5000812F2496E3E00C94B82BA8E0B0E0E3EBEB
:101F6000FFE00C949D2B85E0E2E8F5E0DE011196A0
:101F700001900D928A95E1F780915805909159054D
:101F8000A0915A058E839F83A887288540910505D7
:101F90005091060560910705709108053FB7F894C8
:101FA00080918E0590918F05A0919005B09191053B
:101FB0003FBF841B950BA60BB70B84369105A1057B
:101FC000B10510F4222319F18091920290919302AD
:101FD0008C509B4F4091910250E04930510510F0D8
:101FE00048E050E0BE016F5F7F4F0E94783083E091
:101FF00090E00E94172B882369F00E94E60460930A
:1020000005057093060580930705909308051092C7
:102010005A0581E02896E2E00C94B92BEF92FF92EA
:102020001F93CF93DF9300D000D00F92CDB7DEB7D0
:102030007B0190E080E00E94172B182F882309F481
:102040006DC040917C0250E04115510511F041E016
:1020500050E060917D0270917E026C507B4FCE010A
:1020600005960E9478304091EC045091ED04609107
:10207000EE047091EF042FB7F89480918E05909143
:102080008F05A0919005B09191052FBF841B950BF2
:10209000A60BB70B84369105A105B10538F485EF81
:1020A00094E00E9436039D818917C1F181E090E0A0
:1020B0000E94172B882309F458C04091840250E0F5
:1020C0004530510510F044E050E060918502709178
:1020D00086026C507B4FCE0101960E94783085EFCE
:1020E00094E00E9436039D8189133FC00E94E6045C
:1020F0006093EC047093ED048093EE049093EF04EE
:1021000089819A81AB81BC818093E8049093E90432
:10211000A093EA04B093EB0411E00EC08091F504A3
:102120009091F604A091F704B091F80489839A8302
:10213000AB83BC831111E4CF8091E8049091E90452
:10214000A091EA04B091EB04F70180839183A2830C
:10215000B383812F0F900F900F900F900F90DF910E
:10216000CF911F91FF90EF90089510E0E5CFACE084
:10217000B0E0EDEBF0E10C94922B8E010F5F1F4F5E
:1021800088E0D8011D928A95E9F78BE0C82E84E09B
:10219000D82EF12CE12CAA24A394B12C25E1822E77
:1021A00024E0922EF60181916F018F3F09F442C025
:1021B000F894E82FE295EF70F0E021A18F70A5016F
:1021C00002C0440F551F8A95E2F7CA01922F982B3F
:1021D00091A392A18095892382A3789400C0EFE017
:1021E000F4E0712C31E021912F3F09F46EC0A22F51
:1021F000A295AF70B0E090968C9190E02F7002C0E5
:10220000959587952A95E2F780FD5FC0832F782A00
:10221000330F8E169F0639F7F601319780818F3F75
:1022200011F00E94C60650EA5A95F1F7F801EE0D3A
:10223000FF1D70828FEFE81AF80A94E0E916F104A6
:1022400009F0B0CF48E050E0B8018EE095E00E9480
:102250006B307C01892B41F088E0F801AEE0B5E0FD
:1022600001900D928A95E1F710911705E114F104A0
:1022700071F181E08093DF040E94F2049093DE0408
:102280008093DD048091DD049091DE040E94D704E8
:10229000059790F0E12FF0E0E35EFA4F80910E0594
:1022A000808380910F0581838091100582838091C6
:1022B000110583831092DF0481E090E0E114F104C2
:1022C00051F02C96EDE00C94AE2B80E0A0CF8091E5
:1022D000DF048111D7CF0E94320DF82EE09117054F
:1022E000882309F476C019861A861B861C860E2F51
:1022F00010E0035E1A4F809109058A30A0F54EE088
:1023000050E1BE01675F7F4FC8010E94FF0C882328
:10231000C9F147E55FE0BE01675F7F4FC8010E94DA
:10232000FF0C882379F14DEA5FE0BE01675F7F4FC4
:10233000C8010E94FF0C882329F1109209058091A1
:10234000160590E044E050E0BE01675F7F4F835E7A
:102350009A4F0E946B3021E02093E604892B59F5B7
:10236000F12C8F2DAECF8091E0049091E1040E947A
:10237000D704843F914018F68091E604811112C081
:1023800080E09FCF809109058F3F29F08F5F809378
:1023900009058A30A0F20E94F2049093E104809330
:1023A000E004EACFFE01399684E0DF011D928A95B0
:1023B000E9F71092E604E0911605F0E0E35EFA4FCB
:1023C00089859A85AB85BC8580839183A283B383FD
:1023D000C8CFF0E0E35EFA4F84E0A5EFB4E00190EF
:1023E0000D928A95E1F785EF94E00E943603809381
:1023F000F404C090F904D090FA04E090FB04F0904B
:10240000FC048091E2049091E304A091E404B09173
:10241000E504C816D906EA06FB06D1F0C092E2042C
:10242000D092E304E092E404F092E5040E94320DBD
:1024300081110EC00E94E604C61AD70AE80AF90AFA
:10244000C0920A05D0920B05E0920C05F0920D05A2
:1024500080910405882309F493CF80FF0DC08091FB
:10246000FD049091820580FF28C0916090938205C1
:1024700060E086950E94AF0E8091040581FF09C03F
:1024800020E0409100056091FF048091FE040E94CD
:10249000B90D8091040582FF06C080910305882351
:1024A00011F10E948B0D8091040583FF03C081E030
:1024B000809355051092040563CF9E7F909382050B
:1024C0000E948F0580915A05816080935A05BFEF65
:1024D000E0E7F2E0B150E040F040E1F700C000007A
:1024E0000E941A0AC9CF0E948F05DDCF8091D704C0
:1024F0009091D604892B80933C049091D804992321
:10250000A1F0892B80933C048091B4038823E1F1EE
:102510008091920587FF38C08EE1EEE3F4E090E011
:102520008150A0F591110E94B80840E250E066EB9E
:1025300074E08CE394E00E946B30892B21F180E2FF
:10254000ECE3F4E0A6EBB4E001900D928A95E1F79C
:10255000E0918905F0918A053097A9F08091B40344
:10256000882359F08091920587FF07C080913C0431
:1025700080933D0486E080933C040280F381E02D4B
:102580008CE394E00995089586E0C7CF219122233A
:1025900039F29F5FC5CF90E080E00E94730590E024
:1025A00080E00E945D051092D6040E947612089584
:1025B000609318057093190580931A0590931B0575
:1025C0000E94CB1208950F931F9341E050E060E00A
:1025D00070E004C0440F551F661F771F8A95D2F71D
:1025E000CB01BA0160957095809590950091180582
:1025F0001091190520911A0530911B056023712354
:10260000822393230E94D8121F910F9108959091D5
:10261000B504809589238093B504282F277091F401
:10262000282F082E000C330B9217130659F09091A7
:10263000930592FF07C08595859585950E94E312C5
:102640001092B5040895CF93C0919305C2FB9927CA
:1026500090F9981791F080FBC2F9C09393056091AF
:10266000920584E090E00E94732C6C2F82E290E04F
:102670000E94732C82E00E940713CF9108950F935C
:102680001F9341E050E060E070E004C0440F551F2C
:10269000661F771F8A95D2F78091180590911905CA
:1026A000A0911A05B0911B058A019B01082B192BDB
:1026B0002A2B3B2BC901B8010E94D8121F910F9100
:1026C00008956093D9047093DA048093DB049093A7
:1026D000DC040E94CB1208951092D7048091B403B9
:1026E000EEE3F4E0882361F08091920587FF08C053
:1026F0008EE1DF011D928A95E9F70E94CB120895C1
:1027000086E0F7CFAAE2B0E0E8E8F3E10C949C2B76
:102710008EEB95E02091F100FC012193CF01F5E0D3
:10272000863C9F07B9F78091BF05833009F470C0DC
:10273000B8F4813009F447C0823009F4B1C0809107
:10274000E80083FF7EC28091BE059091BF059A305C
:1027500008F077C2E92FF0E0ED57FF4C0C941C2CE9
:102760008A3009F48CC08B3009F46FC0893039F796
:102770008091BE05813219F78091C2059091C30501
:102780000297E8F68091E800877F8093E8008091C7
:10279000E80082FF38C09091F3008091F200029728
:1027A00031F48091F100813011F0863021F4809174
:1027B000F100809399058091E8008B778093E80081
:1027C0000E94C703BCCF8091BE05813A09F0B7CF04
:1027D0008091E800877F8093E8008091C205909106
:1027E000C305892B61F460E28AE995E070E00E94FC
:1027F00073048091E8008B778093E800A0CF60E0BD
:1028000090E080E0F3CF8091BC058111C0CF97CFDD
:102810008091BE05813A09F092CF8091C2059091D6
:10282000C305892B09F08BCF8091E800877F8093C7
:10283000E8008091E80080FFFCCF8091B403809392
:10284000F1008091E8008E77B9CF8091BE0581328A
:1028500009F075CF8091C2059091C305892B09F0CD
:102860006ECF8091E800877F8093E8000E94C703C5
:102870008091C0058093B4030E946C1360CF809157
:10288000BE05813209F05BCF8091E800877F80939D
:10289000E8000E94C7038091C105809398054FCF3F
:1028A0008091BE05813A09F04ACF8091E800877F88
:1028B0008093E8008091E80080FFFCCF809198052C
:1028C000BECF803899F0823809F0BBC18091C20533
:1028D0008F70873008F0B5C18093E9008091EB00DC
:1028E00085FB882780F91092E90006C08091BA051F
:1028F0009091BB05911182609091E800977F909331
:10290000E8008093F1001092F1008091E8008E774A
:1029100094C1882309F482C1823009F092C1809168
:10292000C005811185C18091C2058F702FEF280FDE
:10293000263008F086C18093E9002091EB0020FF4B
:1029400077C1933031F48091EB0080628093EB008B
:102950006FC19091EB0090619093EB0021E030E02B
:1029600001C0220F8A95EAF72093EA001092EA004C
:102970008091EB008860EACF811163C11091C0059E
:102980001F778091E3008078812B8093E300809112
:10299000E800877F8093E8000E94C7038091E800E9
:1029A00080FFFCCF8091E30080688093E30082E0A9
:1029B000111183E08093BC0544C18058823008F037
:1029C00040C18091C0059091C1058C3D23E09207E4
:1029D000A1F583E08A838AE289834FB7F894DE0108
:1029E000139620E03EE051E2E32FF0E050935700D1
:1029F000E49120FF03C0E295EF703F5FEF708E2FF0
:102A000090E0EA30C0F0C7968D939D932F5F2431FC
:102A100059F74FBF8091E800877F8093E8006AE212
:102A200070E0CE0101960E9473048091E8008B77DC
:102A30008093E80006C1C096E7CF4091C20550914F
:102A4000C305292F33272330310509F444C078F515
:102A50002130310509F46FC08BE390E0E2E1F5E04D
:102A60002230310509F0EDC02091E800277F209346
:102A7000E8002091C4053091C5058217930708F43A
:102A80009C0140E02115310509F064C0411162C08C
:102A90008091E80082FDC9CF8091BC05882329F28E
:102AA000853019F28091E80083FFF2CFBECF21324A
:102AB0003105A9F12232310509F0C3C04115510594
:102AC00009F443C04130510509F0BBC08DE690E0E8
:102AD000E5E6F4E0C9CF992781309105C1F0009770
:102AE00059F0029709F0ADC0EFE5F5E0E4918E2FC3
:102AF00090E0EFE5F5E007C0E9E9F5E0E4918E2F1D
:102B000090E0E9E9F5E0009709F49BC0ADCFE5E876
:102B1000F5E0E4918E2F90E0E5E8F5E0F4CF411583
:102B2000510571F04130510509F08BC089E090E00A
:102B3000EDE3F5E099CF82E190E0EDE4F5E094CFAC
:102B400089E090E0E4E2F5E08FCF80E490E0E2ED10
:102B5000F4E08ACF8091BC05882309F466CF8530E4
:102B600009F463CF8091E80083FD5FCF8091E80096
:102B700082FD8ECF8091E80080FF84CF9091F3009A
:102B80008091F2002115310519F08830910550F03F
:102B900041E0089709F040E08091E8008E7780934B
:102BA000E80070CF44914093F100319621503109F3
:102BB0000196E8CF803809F044C08091E800877F13
:102BC0008093E8008091BD058093F1009ECE811135
:102BD00038C01091C0051230A0F58091E800877FC1
:102BE0008093E8001093BD050E94C703112311F0E4
:102BF00084E005C08091E30087FDFACF81E08093F7
:102C0000BC0542E061EC81E00E94E60342E261EC37
:102C100082E00E94E6038091BC0513C08091C0054C
:102C2000813079F481E0933009F080E08093BB0536
:102C30001092E9008091E800877F8093E8000E946D
:102C4000C7038091E80083FF0AC08091E800877F76
:102C50008093E8008091EB0080628093EB00AA965D
:102C6000E3E00C94B82B882321F00E94BE080E9458
:102C700076120895882339F09091D704982B909379
:102C8000D7040E9476120895882351F19CEF980F83
:102C9000913A40F4682F8CE394E00E94FE040E9475
:102CA0007612089590E2980F983050F4877091E072
:102CB00001C0990F8A95EAF7892F0E94BE08EFCFCD
:102CC0009BE5980F933028F490E080E00E94730514
:102CD0000895885A873120F490E080E00E945D05D5
:102CE0000895CF93C82F8823D9F18CEF8C0F813AA8
:102CF000C8F58091B403882311F18091920587FF74
:102D00001EC0EC2FE695E695E695F0E0E45CFB4FFF
:102D1000828190E04C2F477021E030E002C0220F0A
:102D2000331F4A95E2F782239323892B91F06C2F6E
:102D30008CE394E00E94FE040E9476120AC0EEE347
:102D4000F4E084E494E02191C21789F38E179F0781
:102D5000D1F76C2F8CE394E00E9428050E94761234
:102D6000CF91089580E28C0F883068F4C77021E01D
:102D700030E001C0220FCA95EAF78091D704822B78
:102D80008093D704EBCFEBE5EC0FE33040F4F0E0B9
:102D9000E852FC4F808190E00E947305E1CFC85A51
:102DA000C731F0F6EC2FF0E0EE0FFF1FE552FC4FBD
:102DB000808191810E945D05D3CF0F931F93CF93A4
:102DC000DF93C62FD42F022FFC0182818823A9F024
:102DD0006093C8050E94F2049093C7058093C605CE
:102DE000C77081E001C0880FCA95EAF70E943A16C1
:102DF000DF91CF911F910F9108958091C8056813BD
:102E000035C08091C6059091C7050E94D704883CC3
:102E1000910560F510E21D0FCD17B9F080E28C0F1F
:102E2000883040F4C77081E001C0880FCA95EAF786
:102E30000E943316183048F481E09D2F977001C02E
:102E4000880F9A95EAF70E943A16802F0E94711611
:102E5000802F0E944416183058F6D77081E001C0C8
:102E6000880FDA95EAF70E943316C2CFC77081E067
:102E700001C0880FCA95EAF7F6CF68EE7EEF90E0C2
:102E800080E00E94912C60E082E090E00E94732C30
:102E900060E083E090E00E94732C1092D9041092BD
:102EA000DA041092DB041092DC0460E084E090E02D
:102EB0000E94732C64E082E290E00E94732C60E038
:102EC00085E090E00E94732C60E086E090E00E9434
:102ED000732C6FEF87E090E00E94732C40E050E08D
:102EE000BA0188E090E00E94852C60E08DE090E0DF
:102EF0000E94732C40E050E0BA0188E190E00E940B
:102F0000852C60E087E190E00E94732C40E050E067
:102F1000BA018CE190E00E94852C70E060E080E2D4
:102F200090E00E94912C40E050E0BA0188E190E0EE
:102F30000E94852C40E050E0BA018FE090E00E94B2
:102F4000852C40E050E0BA0183E190E00E94852C9E
:102F500008958091D705811144C090E080E00E94DF
:102F60006D2C883E9E4F11F00E943D1787E090E047
:102F70000E945F2C8093D805EBEDF5E080E090E0B7
:102F8000A0E8BFEB1182108282839383A483B58370
:102F900017821682389626E0EB31F20799F7809176
:102FA000D70581110CC00E943B063E9A82E08093B7
:102FB00090008AE18093910081E08093D7050E9480
:102FC00097068091D80580FF06C063E070E088EA2C
:102FD00092E00E94A1180E94F2049093CC05809385
:102FE000CB050895B0E0A0E0E8EFF7E10C94922B58
:102FF0004B015C017A018091D80580FF81C08091EE
:10300000D705811102C00E94A91720E030E0A90174
:10301000C501B4010E94A72C87FF04C0B7FAB09481
:10302000B7F8B09470901B06872D8150990B6C01F6
:10303000EC01CF3FDC0709F04DC081E0870D8930FE
:1030400008F47CC088E080931B068BED95E028E0B7
:10305000FC013896DC0101900D922A95E1F7089663
:1030600026E08331920799F781E0809347058093AA
:10307000D605C0911B06C150DD0B0E94F204FE0173
:1030800023E0EE0FFF1F2A95E1F7E552FA4F9183F7
:10309000808382829382A482B582F782E6820E9434
:1030A000F2048091E002882359F1809171008260DE
:1030B000809371008091900080688093900080914F
:1030C000D605882321F00E9409030E94460610922B
:1030D000E00216C08E0133E0000F111F3A95E1F7B0
:1030E00005521A4FA5019401F80162817381848110
:1030F00095810E94A72C81111FC0CC15DD052CF0F5
:10310000CDB7DEB7EDE00C94AE2B219688E0F80148
:103110003896D80101900D928A95E1F70E94F20449
:10312000F8019187808782869386A486B586F78684
:10313000E686085F1F4FE1CF21977BCF80931B0668
:1031400093CFCF92DF92EF92FF92CF93DF93EC0178
:103150007B018091D80580FD09C00E949706DF9110
:10316000CF91FF90EF90DF90CF9008958091D70599
:10317000811102C00E94A9178091D60581110E9479
:10318000970681E08093D5051092D405D093D3059E
:10319000C093D205F092D105E092D0051092CF05F0
:1031A0001092CE051092CD056C817D818E819F811C
:1031B0000E941E2D9B01A0E6BAEE0E942A2CC12C73
:1031C0002EE1D22EE12CF12CA70196010E94FA2BC0
:1031D000688179818A819B81A9010E94F2170E94EE
:1031E000F2049093CC058093CB05E091D205F09149
:1031F000D3058091CD059091CE0533E0880F991FBE
:103200003A95E1F7E80FF91F64817581868197810E
:103210000E941E2D9B01A0E6BAEE0E942A2CA70157
:1032200096010E94FA2B3093CA052093C90597CFC7
:1032300081E08093510568E070E081E693E00E94B0
:10324000A11808950E94BE061092500568E070E033
:1032500081E293E00E94A118089581E080935005D7
:1032600068E070E081EE92E00E94A118089562E0AB
:1032700070E080ED92E00E94A1182FEF81EE94E0C3
:10328000215080409040E1F700C000000E94970666
:103290006091D8056E7F6093D80587E090E00E942A
:1032A000732C08956091D80561606093D80587E01C
:1032B00090E00E94732C62E070E080EC92E00E944B
:1032C000A1180895CF93DF930E946C130E94BE064D
:1032D0000E94F204EC0163E070E080E091E00E9463
:1032E000A118CE010E94D7048A3F910528F00E94C0
:1032F0009706DF91CF9108958FE99FE00197F1F74D
:1033000000C00000EECF0E94621988E19CE00FB679
:10331000F894A895809360000FBE90936000FFCF53
:103320000E943A0F4FEF5FEF0E94F2170895B0E04E
:10333000A0E0EDE9F9E10C94972B6B017C0120E012
:1033400030E0A9010E94A72C87FF04C0F7FAF0948F
:10335000F7F8F0948091D605882309F458C080913D
:10336000D705811102C00E94A9170BED15E0C7E037
:10337000D0E0A7019601F80162AD73AD84AD95ADC3
:103380000E94A72C81113CC083E0CC0FDD1F8A95E1
:10339000E1F7C552DA4F1982188280E090E0A0E888
:1033A000BFEB8A839B83AC83BD831F821E82AC01EB
:1033B000BD01F6E0C331DF0789F4C1E0C0934705E2
:1033C00080911B06815080931B06811120C00E94B2
:1033D0003B06C093E0021092D60519C088E0FE01BA
:1033E0003896DE0101900D928A95E1F719861886CC
:1033F0004A875B876C877D871F861E862896D9CF74
:10340000219708501109CF3FDC0709F0B2CFCDB7A3
:10341000DEB7E8E00C94B32BA8E2B0E0E2E1FAE119
:103420000C948F2B7C01DC0113968D919C91149749
:10343000892B39F08C9111969C9189238F3F09F04B
:1034400090C6A896E0E10C94AB2B0E94CF08182FF1
:10345000682F89819A810E944D0969817A81812F23
:103460000E9420078C018D31BCE59B07C1F4F70158
:103470008281882309F4B6C00E9452198091B50454
:103480008770F9F2D70112968C918823D1F280913E
:10349000930582FFD6CF82E00E940713D2CF8E31F0
:1034A000FCE59F0749F4D70112968C91882309F413
:1034B00099C00E943719E2CF8F31BCE59B0751F4C8
:1034C000F7018281882309F48DC08091D80580FDA1
:1034D000F0CFD2CF8A32FCE59F0779F4D70112965C
:1034E0008C91882309F47EC01092DA0564E070E0C4
:1034F00088E191E00E94A118C1CF8B32BCE59B0707
:1035000019F4F7018281EDCF8632FCE59F0749F47B
:10351000D70112968C91882309F464C00E942D195A
:10352000ADCF8732BCE59B0741F4F7018281882348
:1035300009F458C00E942219A1CF8832FCE59F07E8
:1035400059F4D70112968C91882309F44BC08091CD
:1035500050058111EFCFE2CF8C32BCE59B0739F4E7
:10356000F70182818823F1F10E94181987CF8D32EB
:10357000FCE59F0761F4D70112968C91882391F1A5
:103580001092510568E070E088E391E0B3CF8E328D
:10359000BCE59B0749F4F7018281882319F18091EA
:1035A00051058111EDCFE0CF89329C45D9F4D70187
:1035B00012968C918823B1F00E94BE0620911802C9
:1035C00030E02F5F3F4F237033272093180248E2EB
:1035D000429FC001439F900D112465E070E0885820
:1035E0009E4F88CF2091500521117EC080915105BA
:1035F00081117AC0043FBCE51B0709F43CC1A8F463
:10360000093DFCE51F0709F432C10A3D2CE512070C
:1036100009F43DC1083D3CE51307A9F426E241EE5B
:1036200061EEC7010E94DD1629CF063F4CE5140765
:1036300009F429C108F423C127E245EE66EE073FED
:103640009CE5190771F3D70112968C91882309F430
:103650009BC51092C8050430BDE51B0708F01AC1D0
:103660000B3FECE51E0730F4C80182509C4544979F
:1036700008F01AC10E942C0F909393058093920535
:1036800001313CE5130709F4F7C108F05DC10930C9
:103690008CE5180709F4C4C108F031C10530ACE568
:1036A0001A0709F4B5C108F016C10330ECE51E078E
:1036B00009F4A4C108F0A8C180919205816002308C
:1036C0002CE5120709F49DC16091920510919305B4
:1036D00084E090E00E94732C612F82E290E00E94CF
:1036E000732C0E946C13CACED70112963C913323DF
:1036F00009F44AC0003E110561F40E94BE0681E053
:1037000080935D0410925C041092420510923E0575
:10371000B5CE023E110571F40E94BE0680915D0493
:10372000882319F081E080935C0410925D0410926C
:103730004205A4CE033E110591F480915C048823D8
:1037400019F10E94BE0610925D0481E0809342054B
:1037500010923F0510924105109240058FCE809146
:10376000A6029091A7020A970235110541F0013592
:10377000110551F48091A6029091A7020A969093A8
:10378000A7028093A6027ACE8091180281110EC002
:10379000F701418188E090E0841B9109D080F0E13D
:1037A000DF0E4CE0849FD00C112411C0813051F504
:1037B000D70111964C91119788E090E0841B9109F4
:1037C000D82EDD0CDD0CD80E8C918D5CD80E3323F9
:1037D00009F445C0222319F08D2D0E949019809183
:1037E0005D04882351F080913E05E82FF0E0E25D12
:1037F000FA4FD0828F5F80933E050F3F110508F08E
:10380000F9CE3CCE823059F4F701418188E090E056
:10381000841B9109D080F3E3DF0E47E0C3CF4CE077
:10382000D42E8330A1F683E2E5EBF3E0DE011196BE
:1038300001900D928A95E1F7D701EC91EC0FFD2FE5
:10384000F11D11964C9188E090E0841B9109D08481
:10385000BCE08B9FD00C1124E9E0DE0EB8CF222310
:1038600061F28D2D0E943A0F0E949719C6CF27E270
:1038700045EE65EED6CE26E241EE60EED2CE27E2F0
:1038800045EE64EECECE26E241EE62EECACE28E2EE
:1038900041E0EFCF0236FDE51F0709F4EBCE063A13
:1038A0002DE5120709F4E6CE0631ECE51E0709F016
:1038B00079C48091D7048A7A91E009F490E09093DA
:1038C0005E0469E2811165E38CE394E00E942805BF
:1038D0000E947612D3CD80919205806207303CE53C
:1038E000130709F48EC080919205806108304CE581
:1038F000140708F486C080919205806482C00D3060
:103900008CE5180709F4ACC058F40B30ACE51A0785
:1039100009F4A2C008F48AC0809192058D7F71C01D
:10392000809192058F7E0F30ECE51E0709F469C087
:1039300080919205877F0031FCE51F0708F461C084
:10394000809192058F7D5DC00E3F2CE5120709F432
:103950008FC040F505314CE5140709F4ABC080F485
:1039600003319CE5190709F491C008F489C00E944D
:103970006C1390919205892F97FB87F9805841C06D
:103980000C3FBCE51B0709F447C008F06DC08091EF
:10399000930581600B3FFCE51F0709F095CE8093EE
:1039A000930592CE02302DE5120709F493C0A8F4D6
:1039B00001154DE5140709F473C008F443C0809164
:1039C0009305982F909591708E7F892B90FB81F9AC
:1039D0008093930581FF69C03AC002369DE51907BF
:1039E00009F47EC0063AADE51A0709F480C0033039
:1039F000BDE51B0709F068CE60E06DC080919205BF
:103A000082608093920560CE809192058460F9CFA8
:103A1000809192058860F5CF809193058260BFCF39
:103A20000E946C13809192058068EBCF8091920583
:103A30008C608093920564E070E089E592E00E94DA
:103A4000A11842CE8091930583608093930564E032
:103A500070E089E392E0F3CF809192058E7FD1CF21
:103A6000809192058B7FCDCF809193058E7F97CFEC
:103A7000809193058D7F93CF809192058F7BC1CFED
:103A80000E946C13809192058F77BBCF8091920535
:103A9000837F8093920562E070E089E292E0CFCF6D
:103AA000809193058C7F8093930562E070E089E1BB
:103AB00092E0C5CF8091920582FB992790F921E091
:103AC000922790FB82F990FB83F98093920583FF04
:103AD000E2CFB1CF61E08EE090E00E94732CF4CD94
:103AE00090919205892F8F7E94FF80618ACF90916B
:103AF0009205892F8E7F90FF816083CF81608093B4
:103B0000820561E086950E94AF0EB8CC4FEE5EE074
:103B100069EF7EE00E948905B1CC49EF5EE06FEE6F
:103B20007EE0F8CF41E85EE067E77EE0F3CF4DE569
:103B30005EE06AE67EE0EECF43E45EE060E57EE0D4
:103B4000E9CF40E55EE063E47EE0E4CF4DE95EE08E
:103B50006BE87EE0DFCF61E081E0D5CF65E082E019
:103B60000E94040F8BCC68E086E0FACF64E18FE01E
:103B7000F7CF67E185E1F4CF62E289E1F1CF61E05F
:103B800083E2C1CF0E94621981E08093E00080E26D
:103B90008093D8001092C9008FE19EE40197F1F75D
:103BA00000C0000087E090EBDC0180931C0690933E
:103BB0001D06A0931E06B0931F0688E19CE00FB679
:103BC000F894A895809360000FBE90936000FFCF9B
:103BD0008091930582FB882780F991E089270E94D4
:103BE0002313F701828100811181882309F448C0E1
:103BF000C8010E94CF08D82E682FC8010E944D0925
:103C0000B8018D2D0E9420070E943B078C01882E51
:103C1000D7011296DC90129715969C9092943FE0F3
:103C200093228091B5048770C1F0BD2CDD20B1F0E6
:103C3000812F807F803421F080E2800F883068F00F
:103C40008091930582FF09C082E00E940713809152
:103C5000B5048770BB24B3948111B12CA12EA2941A
:103C60002FE0A222BBE0BA1508F479C0EA2DF0E0FB
:103C7000E357FF4C0C941C2C81E0B1CF80E0AFCF18
:103C8000C8010E941809D82EBBCFE12FEF70CE2EAD
:103C9000107F19F0C29490EFC922DD20B9F0CC203A
:103CA00069F080E2800F883010F0811009C08091A7
:103CB000D704C82AC092D7040E947612802F4DC024
:103CC0008091D604C82AC092D604F6CF802F0E94D5
:103CD0004416CC2009F443C0005E083010F0811077
:103CE00004C08C2D0E94BE0806C0C0948091D604EA
:103CF000C822C092D6040E94761231C0F12FFF7004
:103D0000CF2E107F103219F0C29480EFC822882085
:103D1000A1F021E0821609F47AC0DD2009F484C004
:103D2000992009F47AC0D70115968C91159780FFD8
:103D3000C5CF8F7015968C9370C02091930522FD8E
:103D400043C0DD20D9F1CC2039F08091D704C82AB6
:103D5000C092D7040E94761280E00E947116AA2DAC
:103D6000A850BB0B149710F40E94550DBB20A9F06E
:103D70008091B50480FD11C0F7011282859585956B
:103D800085950E943F13C7010E940C1A8091B504CB
:103D90008595859585950E94E31285E0F701DE0102
:103DA000949601900D928A95E1F70CA11DA1C8018E
:103DB0000E941809B8010E94200743CB80E00E94AE
:103DC0004416CC2061F28DCFDD20A1F09091D80473
:103DD0008C2D892B911003C00E943A16C0CF31E080
:103DE0009312FACF22FFBBCF981709F4B8CF809374
:103DF000D804B5CF911006C00E94B8088C2D0E943F
:103E00003316ADCF41E0941609F4A9CFF5CFDD20EC
:103E100031F085E0891508F4A2CF8C2DDDCF94E038
:103E2000991508F49CCFEACF992041F3B9E38B129E
:103E300009C0EFEFF7EE23E0E150F0402040E1F75A
:103E400000C00000802F0E94441689CF812F8695E4
:103E50008695837061F0813009F081CFC80193703D
:103E6000D11002C090E080E00E945D0578CFC801CB
:103E70009370D11002C090E080E00E9473056FCF74
:103E8000812F837009F066C0D11069CF802F829591
:103E900086958770880F880F602F6F70462E512C83
:103EA000712C612C082E04C0440C551C661C771C18
:103EB0000A94D2F740E050E0BA0104FF0FC04FE08F
:103EC00050E060E070E004C0440F551F661F771F8C
:103ED0008A95D2F74095509560957095812F86957B
:103EE00086958370823019F1D8F40091D90410912D
:103EF000DA042091DB043091DC04813069F044293C
:103F0000552966297729CB01BA01602371238223C1
:103F100093230E94611323CF402A512A622A732AD5
:103F2000CB01BA016429752986299729F2CF442942
:103F30005529662977290091D9041091DA04209136
:103F4000DB043091DC04CB01BA01602771278227A2
:103F50009327DFCF8695DD2011F0812F8170882394
:103F600009F4FDCE802F829586958770880F880F83
:103F7000602F6F70462E512C712C612C082E04C0BE
:103F8000440C551C661C771C0A94D2F740E050E0A4
:103F9000BA0104FF0FC04FE050E060E070E004C0E1
:103FA000440F551F661F771F8A95D2F7409550958D
:103FB00060957095812F869586958370823019F172
:103FC000D8F4009118051091190520911A05309127
:103FD0001B05813069F04429552966297729CB01D1
:103FE000BA0160237123822393230E94D812B7CE93
:103FF000402A512A622A732ACB01BA016429752901
:1040000086299729F2CF44295529662977290091D5
:1040100018051091190520911A0530911B05CB0147
:10402000BA016027712782279327DFCF1F70DD2019
:1040300029F0812F0E943F13802FCECE802F0E9427
:104040003316812F0E94E3128ACE802F32EF83161F
:1040500009F43FC0381570F040EF8416D1F091EFAD
:10406000891691F0DD2009F46CC0911027CE812FC4
:104070008F7133C0A3EF8A1699F1B4EF8B12F2CF90
:104080008091930582FD3FC0812F8F71DD20D1F299
:1040900024C0DD20C9F0E4E0E91508F460CE1F710A
:1040A00061E070E080E090E004C0660F771F881F39
:1040B000991F1A95D2F700911805109119052091B2
:1040C0001A0530911B05ADCFF5E0F91508F447CE80
:1040D000E6CF812F8F71D110B5CF0E943F133FCE15
:1040E00060E070E0CB01DD2009F47FCF1F7161E05B
:1040F00070E080E090E004C0660F771F881F991F72
:104100001A95D2F772CFDD2089F01F71812F0E949E
:104110003F138091930582FF07C028E0129FC001E2
:10412000112483608093B504812FD7CF81E00E9452
:10413000071331E0391508F012CE82E00E94071310
:104140000ECE992059F0893309F07CCE4FEF87EEDF
:1041500093E0415080409040E1F772CE812F8F7103
:1041600071CF85E0F701DE01119601900D928A95DD
:10417000E1F7D70112962C9189819A81211165C9A5
:104180000E941809182F69C90631BCE51B0741F5C3
:1041900080915E0469E2811165E38CE394E00E9402
:1041A000FE0496CB0B35EDE51E0709F465CD68F4EA
:1041B00001152CE5120709F4E5CC0F3D1C4509F06B
:1041C00010CD0E943D170E9483190D354DE514074F
:1041D00009F4FECC08F452CD083A1D45A1F301CDF7
:1041E0008091D70482720D3CACE51A0709F4AECC7D
:1041F00008F068C0073CECE51E0709F493CCF0F525
:10420000043C2CE5120709F481CC48F5033C4CE54D
:10421000140709F0E6CC8091820580FF6FCC8E7F79
:104220008093820560918205709183058091840559
:10423000909185050E94A60D0E948F0580915A05D8
:10424000816080935A05FFEF20E732E0F150204073
:104250003040E1F700C000000E941A0A0FC9053C77
:104260009CE5190709F459CC47E75EE061E87EE078
:10427000063CACE51A0709F44DCCB3CC0A3CBCE5CE
:104280001B0709F459CC78F4083CFCE51F0709F436
:104290004ECC4AE65EE06DE57EE0093C2CE5120777
:1042A00009F438CC9ECC0B3C3CE5130709F449CC0F
:1042B0000C3C4CE5140709F094CC4BE85EE06DE94A
:1042C0007EE028CC023D8CE5180709F44FCCA0F421
:1042D0000F3CACE51A0709F441CC08F43CCC003D96
:1042E000ECE51E0709F43FCC6EE089E0013DFCE5FA
:1042F0001F0709F435CC75CC053D2CE5120709F4F0
:104300003BCC68F4033D4CE5140709F432CC043D82
:104310008CE5180709F065CC61E088E1F4CB063D37
:104320009CE5190709F42BCC0E35ADE51A0709F405
:10433000A5C857CC1F93CF93DF9380918204807FD1
:1043400009F049C080917F04882309F444C080911A
:10435000B404D091830460917D0470917E04A09197
:104360008004B0918104C62FC72316E0D81799F1B5
:1043700090E0109711F0CF3F19F401968770F6CFB7
:10438000189F9001199F300D1124F901EC57FB4F34
:1043900041814713F2CF40814613EFCF4281411153
:1043A000ECCF438154814A1B5B0B483C510528F7F5
:1043B000809182048F70806180938204F901E757B5
:1043C000FB4F80818F70806180838DE794E00E9435
:1043D0000C1A0E94C508DF91CF911F910895A1E1A9
:1043E000B0E0E5EFF1E20C94952B8C0185E0F8014B
:1043F000DE011D9601900D928A95E1F7F801E280A9
:104400008DE7A82E84E0B82E60918004709181041D
:104410006115710509F426C190917D0440917E04D7
:10442000892F84238F3F09F41DC120813181C380EE
:10443000D480F0907F04F601E61BF70BFF2009F40F
:10444000DCC080918204582F507FE83CF10508F0D1
:104450009FC051116BC0FE2C431314C0921312C0A5
:10446000E11010C08F70806180938204C5010E94AA
:104470000C1A80918204F80185838F2D6196EAE001
:104480000C94B12BC114D10429F0822F83238F3FC8
:1044900009F003C180E0F82FF170DF2E80FF3CC0EF
:1044A0008091B4044091830456E0841315C02D8795
:1044B0003E878D859E850E940B09292F22952F709E
:1044C0002230F0F0243018F59F70F1F0F80195815A
:1044D000907FD1F4D12C1EC090E0589FF001599FDD
:1044E000F00D1124EC57FB4F6181361306C060813B
:1044F000261303C06281E6120FC001968770D5CFE4
:104500009F7011F0882331F3805E883018F3C80162
:104510000E940C1AFD2CB1CFEE2009F4AECF809191
:104520008204816080938204F12CA7CF431306C0DC
:10453000921304C0F801EE2009F479C0C8010E946A
:104540008509882309F1EE20F9F0809182048032F8
:1045500070F020917D0430917E0438872F83198676
:10456000DB86CA868C87CE0107960E940C1A86E0ED
:10457000F801ADE7B4E001900D928A95E1F70E9451
:104580009A21FF24F39479CFC8010E940C1AF9CF25
:1045900051110AC08DE794E00E940C1A86E0F501E3
:1045A00011928A95E9F7C0CF43130FC092130DC043
:1045B000E1100BC0F8018583C8010E940C1A86E047
:1045C000F50111928A95E9F758CFC8010E94850933
:1045D0008823D1F2EE20C1F280918204803238F239
:1045E00020917D0430917E043A8329831B82DD82F1
:1045F000CC828E83CE010196B8CFE83CF105F8F667
:10460000FE2CEE2009F243131FC092131DC08091AF
:10461000820480FD10C0982F907F69F0F801858397
:10462000903F31F0982F907F905F8F70892B85831A
:10463000C8010E940C1A86E0F801ADE7B4E00190D1
:104640000D928A95E1F719CFC8010E948509811161
:104650008ECF80918204816080938204C8010E9481
:104660000C1A0BCFEE2009F48FCFC8010E948509E8
:10467000F82E882309F488CF86E0F801ADE7B4E08E
:1046800001900D928A95E1F780917D0490917E04CE
:104690000E940B090E949A21F0CE81E08E25FBCE6C
:1046A000A7E1B0E0E6E5F3E20C949C2B4B8B5C8B2E
:1046B0006D8B7E8B8F8B61111092D6041A8A198AAA
:1046C00085E0FE017396DE011D9601900D928A959C
:1046D000E1F786E0FE013D96DE01179601900D920E
:1046E0008A95E1F7CE0107960E94EF21811112C051
:1046F00086E0FE013796DE01119601900D928A95B3
:10470000E1F78A859B85892B29F088859F818923FC
:104710008F3F81F516E08091B40490918304891352
:1047200017C06796E3E00C94B82B96E0929FD001F7
:10473000939FB00D1124AC57BB4FFE0131960190F1
:104740000D929A95E1F7809383040E94C508E2CF09
:10475000819FC00111248C579B4F0E94EF21882319
:1047600001F38091B40490E00196877099278093BB
:10477000B404D1CF2091830430E0C9010196877041
:1047800099274091B4044817190679F60E946C13D2
:10479000109283041092B40486E0EDE7F4E0DF01A8
:1047A0001D928A95E9F7B6CF1F920F920FB60F921E
:1047B00011242F933F934F935F936F937F938F9326
:1047C0009F93AF93BF93CF93DF93EF93FF93D091DA
:1047D000E900DF708091EC00C82FC17080FDC0E857
:1047E0001092E9008091F000877F8093F000789428
:1047F0000E9482131092E9008091F00088608093FB
:10480000F000CD2BCF70C093E900FF91EF91DF91C5
:10481000CF91BF91AF919F918F917F916F915F9158
:104820004F913F912F910F900FBE0F901F901895B1
:104830001F920F920FB60F9211242F933F934F9315
:104840005F936F937F938F939F93AF93BF93EF93F8
:10485000FF938091E10082FF09C08091E20082FF16
:1048600005C08091E1008B7F8093E1008091DA00A8
:1048700080FF24C08091D80080FF20C08091DA00A2
:104880008E7F8093DA008091D90080FF9DC080E107
:1048900089BD82E189BD09B400FEFDCF81E080932E
:1048A000BC0580919705811109C00E944D030E94AB
:1048B00018048091E20084608093E2008091E1001E
:1048C00080FF17C08091E20080FF13C08091E2005A
:1048D0008E7F8093E2008091E20080618093E2000D
:1048E0008091D80080628093D80019BC85E08093C5
:1048F000BC058091E10084FF2BC08091E20084FF21
:1049000027C080E189BD82E189BD89B5982F91706A
:1049100080FFFBCF8091D8008F7D8093D80080915D
:10492000E1008F7E8093E1008091E2008F7E809392
:10493000E2008091E20081608093E2008091BD05F9
:10494000882309F447C084E08093BC058091BC05AE
:104950008091E10083FF27C08091E20083FF23C0A4
:104960008091E100877F8093E10082E08093BC0525
:104970001092BD058091E1008E7F8093E1008091CF
:10498000E2008E7F8093E2008091E200806180935C
:10499000E20042E060E080E00E94E6038091F000E7
:1049A00088608093F000FF91EF91BF91AF919F914C
:1049B0008F917F916F915F914F913F912F910F90C8
:1049C0000FBE0F901F90189519BC1092BC05109245
:1049D000970574CF8091E30087FD93E09093BC0529
:1049E000B5CF78941F921FB61F9211248F939F9377
:1049F000AF93BF9380918E0590918F05A091900504
:104A0000B09191050196A11DB11D80938E059093E3
:104A10008F05A0939005B0939105BF91AF919F91A1
:104A20008F911F901FBE1F9018951F921FB61F9247
:104A300011248F939F93AF93BF9380918D05811124
:104A400013C080918E0590918F05A0919005B09133
:104A500091054196A11DB11D80938E0590938F0500
:104A6000A0939005B0939105BF91AF919F918F91C5
:104A70001F901FBE1F9018951F920F920FB60F9296
:104A800011247F928F929F92AF92BF92CF92DF922A
:104A9000EF92FF920F931F932F933F934F935F9348
:104AA0006F937F938F939F93AF93BF93CF93DF9336
:104AB000EF93FF9380914C0590914D05A0914E0589
:104AC000B0914F050196A11DB11D80934C059093A7
:104AD0004D05A0934E05B0934F0560914C05709124
:104AE0004D0580914E0590914F050E944D2D6B0113
:104AF0007C0120E030E040E85CE360914805709183
:104B0000490580914A0590914B050E94FF2D9B011C
:104B1000AC01C701B6010E94A72C87FDB2C010925C
:104B20004C0510924D0510924E0510924F05709055
:104B3000D5058091D605811103C0772009F497C06F
:104B40000E94F2046C0171101DC0712C8091D60579
:104B5000882379F08091D9058111782ECBEDD5E0AD
:104B600010E000E080911B068017110611F00CF098
:104B700007C180914705882309F479C01092470541
:104B8000782E75C00091CB051091CC05C8010E940C
:104B9000D704C091C905D091CA058C179D07A8F20A
:104BA000C8010E94D7047C01EC1AFD0AD092CC0502
:104BB000C092CB058090CD059090CE05E401219662
:104BC000D093CE05C093CD050E94F204C090D005CD
:104BD000D090D105CC15DD0548F08091CF05882314
:104BE00009F442C01092CE051092CD050091D20575
:104BF0001091D305C091CD05D091CE058091D405FB
:104C00005E0163E0AA0CBB1C6A95E1F7811157C0F5
:104C1000F40153E0EE0FFF1F5A95E1F7E00FF11F8B
:104C2000D801AA0DBB1D2D913D914D915C916081E4
:104C30007181828193810E94A72C811140C081E003
:104C40008093D4054FE050E060E070E0CB010E941B
:104C5000F2179092CE058092CD058FE090E0909370
:104C6000CA058093C90572CF0E949706712C809166
:104C7000D60581119DC08091D505811199C00E94F2
:104C80003B06FF91EF91DF91CF91BF91AF919F9143
:104C90008F917F916F915F914F913F912F911F91D4
:104CA0000F91FF90EF90DF90CF90BF90AF909F90CB
:104CB0008F907F900F900FBE0F901F9018951092BD
:104CC000D405F801EA0DFB1D648175818681978109
:104CD0000E941E2D9B01A0E6BAEE0E942A2C20E025
:104CE0003EE140E050E00E94FA2B81E0C81AD10872
:104CF000812C4EE1942EA12CB12C2E153F05F0F005
:104D0000D093CE05C093CD05E216F306A8F5C901F0
:104D10008E199F097C0183E0CC0FDD1F8A95E1F796
:104D2000C00FD11F688179818A819B81A7010E9470
:104D3000F217F092CA05E092C90508CFCC15DD053F
:104D4000F8F6E21AF30A2196FE0123E0EE0FFF1FA8
:104D50002A95E1F7E00FF11F6481758186819781C3
:104D60000E941E2D9B01A0E6BAEE0E942A2CA501EE
:104D700094010E94FA2BC1CFEE24E394F12CCBCF07
:104D8000EE80FF80C70101978E3F9F4F68F48881B6
:104D900099810E94D7048E159F0530F06A817B812E
:104DA0008C819D810E9497190F5F1F4F2896DACE44
:104DB000772009F466CF0E9409030E94460661CF5E
:104DC000CDB7DEB72A970FB6F894DEBF0FBECDBFC2
:104DD00085B7806885BF85B7806885BF84B7877FC2
:104DE00084BF0FB6F894A895809160008861809385
:104DF0006000109260000FBE80E890E00FB6F8945B
:104E000080936100909361000FBE84EC96E09093D4
:104E10003B0480933A040E944D030E941804809141
:104E2000E20084608093E20078948091BC0588233E
:104E3000A1F01091E9001F709091EC00892F817012
:104E400090FD80E8182B1092E9008091E80083FD26
:104E50000E9482131F701093E90082E084BD93E0EA
:104E600095BD9AEF97BD80936E0010920A0510923F
:104E70000B0510920C0510920D0524982C9A83B105
:104E80008295817091E0892724982C9880939902CB
:104E900080919902882309F41AC11092AF0386E029
:104EA0008093B0030E94320D81110E942B2A8091C1
:104EB00099028091990294E0811190E090931705F6
:104EC00084E0891B8093160585EF0E94C60686EF55
:104ED0000E94C60687E60E94C60687EF0E94C606A5
:104EE0000FE014E085E1E82E84E0F82ED8018D91E2
:104EF0008D018F3F11F00E94C606E016F106B1F752
:104F000088E0EDE1F5E0DF01282F1D922A95E9F711
:104F1000EEE0F5E0DF011D928A95E9F790E080E090
:104F20000E946D2C883E9E4F11F00E943D1782E03A
:104F300090E00E945F2C809325050E942C0F909397
:104F400093058093920583E090E00E945F2C682F88
:104F500070E090E080E00E9461130E94A9178091A8
:104F60001C0581113BC090E080E00E946D2C883EC2
:104F70009E4F21F00E943D170E94140F88E090E0A0
:104F80000E94672C6093820570938305809384054B
:104F90009093850580915A05836080935A056E7FB2
:104FA00071F40E94140F88E090E00E94672C6093D7
:104FB00082057093830580938405909385050E94F4
:104FC00096050E948F058091820580FF04C060E0F5
:104FD00086950E94AF0E81E080931C050E94320DE1
:104FE000811102C00E942E2A8AE992E090938A05DC
:104FF00080938905F8E1CF2ED12CA0E47A2EB0E180
:10500000AB2E12E1B12E8091BC05853049F4809120
:10501000BC05853009F45FC00E946C130E94550DD9
:105020000E94B71081110E94E604EDE1F5E0A6E2CE
:10503000B5E010E000E0802EE1908D918E1509F42E
:1050400087C0912CFF24F3948E25982F9F2109F47B
:105050007AC00E94320D882399F099828A82EF20CB
:1050600081E009F480E08B830E94F2048160782F54
:105070009D838C8349815A816B818D810E9450234D
:10508000F801EA5DFA4F8081F826F0820E94320D25
:10509000882309F47EC080914205882309F479C0F1
:1050A0008091400590914105009709F068C00E94E9
:1050B000F204909341058093400580913F05282F8D
:1050C00030E0882309F4D8C0C9010197D9C086E02F
:1050D0008093AF03E5CE8091BC05843019F10E9426
:1050E000970610928D050FB6F894A895C0926000AF
:1050F0000FBE7092600083B7817F846083BF83B7E7
:10510000816083BF7894889583B78E7F83BF0FB605
:10511000F894A89580916000886180936000109257
:1051200060000FBE8091BB05882309F470CF0E94F8
:10513000B710EDE1F5E0819181111FC125E0E53265
:10514000F207C9F764CF9394FF0C46E094127DCF29
:105150000F5F1F4F0830110509F06DCF8FEF8E8361
:105160008F8318860E94F2048160782F9A8789873E
:105170004E815F8168858A850E94502387CF0E9477
:10518000D7042091A6023091A7022817390708F406
:105190008ECF80915905882309F464C08091580509
:1051A000E0918205E695E81BE0935405823009F012
:1051B0008AC0F0E0E45AFD4FE4910E2F10E0EBEED0
:1051C000EE2EECE0FE2E80915505882361F01092C2
:1051D00055050E94800D90935305809352051092BF
:1051E0005705109256050E94800DE0915205F091EE
:1051F00053059C012E1B3F0B2F3F3F4798F52091F5
:1052000045052223B1F010924505209143053091C8
:105210004405821B930B8F3F9F4758F4205D3A480B
:10522000309344052093430580915A05886080930C
:105230005A058090560590905705E00FF11FF093A6
:105240005305E093520582E595E0F70109958091B9
:10525000560590915705892B29F4892819F081E08A
:10526000809345050E94550D90914605891709F4D4
:10527000CACE80934605C7CE80913E058150990BDA
:1052800040915005442399F0225D3A4FD9011C9179
:10529000825D9A4FFC0180810E943A0F0E9497190B
:1052A00080915005882319F0812F0E9490198091D8
:1052B0003F0590E0019660913E0570E00E94E62B6C
:1052C00080933F0566CF863059F4F0E0E75AFD4FF2
:1052D000E4910E2F10E07BEDE72E7CE0F72E73CFEC
:1052E000893061F4E695F0E0EA5AFD4FE4910E2F23
:1052F00010E064E3E62E6CE0F62E65CF8F3061F4AB
:10530000E695F0E0ED5AFD4FE4910E2F10E059EADA
:10531000E52E5BE0F52E57CF853159F4F0E0E05BE8
:10532000FD4FE4910E2F10E044E2E42E4BE0F42E0A
:105330004ACF08E210E092EAE92E9AE0F92E88318D
:1053400009F441CF833249F4EEE4F2E0059114917F
:105350003AE8E32E3CE0F32E36CF04EF11E025E6E9
:10536000E22E2AE0F22E843209F42DCF00ED17E070
:1053700082EDE82E84E0F82E26CFA9BCB9BC09B492
:1053800000FEFDCF8091D8008F7D8093D800809162
:10539000E00082608093E0008091E00081FDFCCF1E
:1053A0000E946C1334CE8EE1489B02C08150E1F71D
:1053B000489BFECF0895589880E28A95F1F7589A55
:1053C0000895FC013BE03A95F1F798E020E080E099
:1053D00031E040E14A95F1F7880F489B02C08160B7
:1053E000232742E04A95F1F7000040E14A95F1F7A2
:1053F000915079F790E19A95F1F799B132E03A95A9
:10540000F1F7000040E14A95F1F791709227208171
:10541000920F90830895A1E0B0E0E1E1FAE20C94EC
:10542000992B19828C017C01E60EF11C0E151F05CB
:1054300041F481E09981911180E02196E6E00C949D
:10544000B52B0E94D329CE0101960E94E129F801D3
:1054500081938F01EBCF509A589A08955098589A9B
:10546000E89AE9E6F0E080818C7F808308956150BE
:10547000770B91E001C0990F6A95EAF720E031E0DF
:10548000911108C0222391F0589A80E28A95F1F791
:1054900058980895492F482339F0589A232740E215
:1054A0004A95F1F79695ECCF5898F9CF5898EDCFEB
:1054B000FF920F931F93CF93DF93EC018C01060FA4
:1054C000111DC017D10729F4CDB7DEB7E5E00C9464
:1054D000B62BF9900E94DB2968E08F2D0E94372AB5
:1054E000F0CF1F920F920FB60F9211240F931F93BC
:1054F0002F933F934F935F936F937F938F939F93DC
:10550000AF93BF93EF93FF93CF93DF930F92CDB7FA
:10551000DEB719820E94D329CE0101960E94E129AB
:10552000082F069506950695282F22952570902F11
:105530009570290F922F937026952695920F982794
:1055400097708981982B09F05CC0053008F059C02C
:1055500080E18A95F1F7589A509A82E08A95F1F79E
:1055600000C0589888E0089F80011124D801A758EE
:10557000BD4F1696ED91FC9117973097A9F0609169
:10558000090470910A0414962D913C911597260FE9
:10559000371F11968D919C911297680F791F139662
:1055A0004C9113978C910995F801E758FD4F638151
:1055B000662351F02091090430910A048481958179
:1055C000820F931F0E94582A0E94DB2980E18A954E
:1055D000F1F758985098589A80E18A95F1F7F801B8
:1055E000E758FD4F6081662351F020910904309106
:1055F0000A0481819281820F931F0E940B2A0E94CC
:10560000D3290F90DF91CF91FF91EF91BF91AF918F
:105610009F918F917F916F915F914F913F912F91CA
:105620001F910F910F900FBE0F901F9018950F9321
:105630001F93CF93DF93EC0105970CF04CC0F894C7
:10564000509A589885E08A95F1F700009C2F96951E
:1056500095708C2F8570980F892F837096959695ED
:1056600023E0CC0FDD1F2A95E1F7980F8E01092B5F
:105670000E94DB2900C068E0802F0E94372A80E169
:105680008A95F1F75098589A489B1EC087E090E0A1
:1056900048991CC0FE01E758FD4F63816623F9F06D
:1056A0002091090430910A0484819581820F931F0F
:1056B0000E940B2A811113C0509A589A7894DF9156
:1056C000CF911F910F91089500C0DECF019729F46B
:1056D000509A589A789480E0F2CF00C0D9CF0E94B7
:1056E000D32980E28A95F1F75898509A80E18A95FB
:1056F000F1F7C758DD4F6881662351F02091090406
:1057000030910A0489819A81820F931F0E94582A3E
:105710000E94DB29789481E0D2CF2F923F924F9262
:105720005F926F927F928F929F92AF92BF92CF9231
:10573000DF92EF92FF920F931F93CF93DF93CDB73A
:10574000DEB7CA1BDB0B0FB6F894DEBF0FBECDBFB2
:1057500009942A88398848885F846E847D848C8483
:105760009B84AA84B984C884DF80EE80FD800C818C
:105770001B81AA81B981CE0FD11D0FB6F894DEBF6F
:105780000FBECDBFED01089587FB082E062687FDCD
:10579000819567FD61950E94532C0EF4919507FC4D
:1057A00081950895AA1BBB1B51E107C0AA1FBB1F0F
:1057B000A617B70710F0A61BB70B881F991F5A959D
:1057C000A9F780959095BC01CD01089597FB072E10
:1057D00016F4009407D077FD09D00E94D22B07FC65
:1057E00005D03EF4909581959F4F089570956195F1
:1057F0007F4F0895A1E21A2EAA1BBB1BFD010DC00D
:10580000AA1FBB1FEE1FFF1FA217B307E407F50770
:1058100020F0A21BB30BE40BF50B661F771F881F4C
:10582000991F1A9469F760957095809590959B01E2
:10583000AC01BD01CF010895EE0FFF1F0590F4915B
:10584000E02D09940E942A2C332312F48A1B9B0B0F
:105850000C943B2CA29FB001B39FC001A39F700D7D
:10586000811D1124911DB29F700D811D1124911D68
:1058700008950E942A2CB7FF0895821B930B089568
:105880000E942A2CA59F900DB49F900DA49F800D7F
:10589000911D11240895B7FF0C94402C0E94402CB8
:1058A000821B930B0895991B79E004C0991F9617EA
:1058B00008F0961B881F7A95C9F780950895F99985
:1058C000FECF92BD81BDF89A992780B50895A6E1D3
:1058D000B0E044E050E00C94992CA8E1B0E042E044
:1058E00050E00C94992C262FF999FECF92BD81BDE2
:1058F000F89A019700B4021639F01FBA20BD0FB60E
:10590000F894FA9AF99A0FBE08950396272F0E94E9
:10591000742C0E94732C252F0E94742C242F0C941D
:10592000742C0196272F0E94742C0C94732CDC018C
:10593000CB01FC01F999FECF06C0F2BDE1BDF89A9A
:10594000319600B40D9241505040B8F708950E942E
:105950008A2D08F481E008950E94C02C0C94C52D76
:105960000E94BE2D58F00E94B72D40F029F45F3FF1
:1059700029F00C94AE2D51110C94F92D0C94B42DEA
:105980000E94D62D68F39923B1F3552391F3951B0B
:10599000550BBB27AA2762177307840738F09F5F50
:1059A0005F4F220F331F441FAA1FA9F335D00E2EBD
:1059B0003AF0E0E832D091505040E695001CCAF72A
:1059C0002BD0FE2F29D0660F771F881FBB1F2617ED
:1059D00037074807AB07B0E809F0BB0B802DBF01C4
:1059E000FF2793585F4F3AF09E3F510578F00C9493
:1059F000AE2D0C94F92D5F3FE4F3983ED4F38695D9
:105A000077956795B795F7959F5FC9F7880F911DB3
:105A10009695879597F90895E1E0660F771F881F9F
:105A2000BB1F621773078407BA0720F0621B730B52
:105A3000840BBA0BEE1F88F7E09508950E94DE2DC7
:105A400088F09F5798F0B92F9927B751B0F0E1F03F
:105A5000660F771F881F991F1AF0BA95C9F714C0EF
:105A6000B13091F00E94F82DB1E008950C94F82D1A
:105A7000672F782F8827B85F39F0B93FCCF3869528
:105A800077956795B395D9F73EF490958095709585
:105A900061957F4F8F4F9F4F0895E89409C097FB02
:105AA0003EF490958095709561957F4F8F4F9F4FF5
:105AB0009923A9F0F92F96E9BB279395F695879539
:105AC00077956795B795F111F8CFFAF4BB0F11F4FC
:105AD00060FF1BC06F5F7F4F8F4F9F4F16C08823A3
